:1000000094C00000B3C00000B1C00000AFC0000049
:10001000ADC00000ABC00000A9C00000A7C0000038
:10002000A5C00000A3C00000A1C000009FC0000048
:1000300099C300009BC0000099C0000097C0000059
:1000400095C0000093C0000091C000008FC0000068
:100050008DC000008BC0000089C0000087C0000078
:1000600085C000000C946F150C94C1157FC0000072
:100070007DC000007BC0000079C0000077C0000098
:1000800075C0000073C0000071C000006FC00000A8
:100090000C9405160C94571669C0000067C0000048
:1000A00065C0000063C0000061C000005FC00000C8
:1000B0005DC000005BC0000059C0000057C00000D8
:1000C00055C0000053C0000051C000000C949B16A6
:1000D0000C94ED164BC000000C9431170C94831750
:1000E00045C000005412541254128B129312A812DD
:1000F000541254128B1293120E94830880916D0C3B
:10010000823008F06AD20E94D112F6CFCF93DF93EB
:100110001F92CDB7DEB7CE0101960E94D70F49815D
:100120000E94CA110E941E12F6CF11241FBECFEFEB
:10013000D1E2DEBFCDBF00E00CBF12E0A0E0B2E034
:10014000E6E1F7E300E00BBF02C007900D92A83490
:10015000B107D9F72DE0A8E4B2E001C01D92A032AA
:10016000B207E1F70E9414140C94891B49CFE8E010
:10017000F1E09081907F908390818F70982B908395
:100180000895E8E0F1E08081807F80830895E4E5D0
:10019000F2E0A8E5B2E0B183A08313821282E8E125
:1001A000FCE0F0935302E093520213821282118218
:1001B000108280EC99E013969C938E931297ED93A6
:1001C000FC9390934F0280934E0290935102809340
:1001D000500280E090E8909349028093480208958D
:1001E000CF93DF93EC01A4E5B2E001C0DF01ED9114
:1001F000FC911197EC17FD07C8F312968D919C9115
:1002000013979D01280F391FC217D30749F42A817C
:100210003B81820F931F13969C938E931297ED014F
:100220008A819B819E01280F391FE217F307C1F4D1
:100230002091520230915302E217F30771F02281AC
:100240003381820F931F9B838A83ED91FC911197D9
:10025000808191819983888305C03983288302C076
:10026000F983E883CA17DB0711F0CD93DC93DF91A4
:10027000CF910895EF92FF920F931F93CF93DF9347
:100280008C010E94CE098091520290915302892BD9
:1002900009F47DDF809148029091490280239123E7
:1002A000892B09F076C00115110549F0C8010496A3
:1002B0000817190718F000E010E001C08C010115C3
:1002C000110509F469C08091500290915102801784
:1002D000910708F464C0C0915402D0915502E4E53E
:1002E000F2E002C0FE01EC018A819B818017910738
:1002F00020F4888199810097A9F78091520290910A
:100300005302C817D90709F44DC0E080F18084E09A
:10031000E80EF11C88819981918380832A813B8139
:10032000201B310B2930310548F0CE01800F911F81
:10033000FC01338322831B830A8352DF2A813B81A2
:100340008091500290915102821B930B9093510225
:100350008093500240914E0250914F0284179507AE
:1003600020F490934F0280934E0280914802909126
:100370004902282B392B3B832A83198218828091CA
:100380004C0290914D02019690934D0280934C0245
:100390000BC0E12CF12C08C0E12CF12C05C0E12CA4
:1003A000F12C02C0E12CF12C0E940E0BE114F1049F
:1003B00011F40E94DD12C701DF91CF911F910F91BF
:1003C000FF90EF9008950F931F93CF93DF930097C3
:1003D00089F1EC0124974A815B8120914802309198
:1003E0004902BA0162237323672B21F16881798165
:1003F000672B01F520953095242335233B832A83F1
:10040000CDD78A819B812091500230915102820F79
:10041000931F9093510280935002CE01E1DE8091B0
:100420004A0290914B02019690934B0280934A02AC
:100430000E940E0BDF91CF911F910F910895FC0147
:100440000396928381834FEF5FEFBA014383548316
:10045000658376839087878392878187108208954A
:10046000FC011386128608950F931F93CF93DF9399
:10047000EB01088119812A813B810F3F4FEF14075F
:100480002407340721F4FC01A185B28511C0DC01E9
:10049000139601C0DF011496ED91FC9115974081F0
:1004A000518162817381041715072607370790F77A
:1004B0001496ED91FC911597FD83EC83D783C68349
:1004C000BF83AE831596DC93CE9314979B878A8760
:1004D000FC0120812F5F2083DF91CF911F910F912D
:1004E0000895CF93DF93FC01A285B385C481D581A4
:1004F000868197819F838E83C681D78184819581F0
:100500009D838C8311968D919C911297E817F90722
:1005100031F48681978112969C938E93119713865E
:1005200012868C9181508C938C91DF91CF9108959C
:10053000A89590EC88E10FB6F894A8958093600098
:100540000FBE909360000895FC0160833197708323
:100550003197108231971082319720E820833197AC
:1005600010823197108231971082779740833197AC
:10057000508386970895DCDFA091DB0CB091DC0CF2
:10058000CD91CDBFDD91DEBFFF91EF91DF91CF9196
:10059000BF91AF919F918F917F916F915F914F919B
:1005A0003F912F911F910F91FF90EF90DF90CF908F
:1005B000BF90AF909F908F907F906F905F904F9083
:1005C0003F902F901F900F900CBE0F900BBE0F907E
:1005D0000FBE0F90089581E008950F920FB6F89422
:1005E0000F920BB60F920CB60F921F9211242F92FE
:1005F0003F924F925F926F927F928F929F92AF92B3
:10060000BF92CF92DF92EF92FF920F931F932F939F
:100610003F934F935F936F937F938F939F93AF938A
:10062000BF93CF93DF93EF93FF93A091DB0CB09137
:10063000DC0C0DB60D920EB60D920E94790CA091B5
:10064000DB0CB091DC0CCD91CDBFDD91DEBFFF9115
:10065000EF91DF91CF91BF91AF919F918F917F915A
:100660006F915F914F913F912F911F910F91FF904B
:10067000EF90DF90CF90BF90AF909F908F907F9042
:100680006F905F904F903F902F901F900F900CBEF7
:100690000F900BBE0F900FBE0F9008950F920FB6E4
:1006A000F8940F920BB60F920CB60F921F92112472
:1006B0002F923F924F925F926F927F928F929F9272
:1006C000AF92BF92CF92DF92EF92FF920F931F9360
:1006D0002F933F934F935F936F937F938F939F934A
:1006E000AF93BF93CF93DF93EF93FF93A091DB0C76
:1006F000B091DC0C0DB60D920EB60D9213BE62D603
:1007000081110E94790CA091DB0CB091DC0CCD9191
:10071000CDBFDD91DEBFFF91EF91DF91CF91BF9112
:10072000AF919F918F917F916F915F914F913F9189
:100730002F911F910F91FF90EF90DF90CF90BF907E
:10074000AF909F908F907F906F905F904F903F9071
:100750002F901F900F900CBE0F900BBE0F900FBEEE
:100760000F9008959BDF1895DC0153962C915397B9
:10077000222341F05A96ED91FC915B9790818AE09B
:10078000891B089580E008950FB6F8940F92FC013C
:10079000868D811102C081E001C080E00F900FBE04
:1007A00008950FB6F8940F92FC01268D878D2813BB
:1007B00002C081E001C080E00F900FBE08950F934A
:1007C0001F93CF93DF93EC01042F1E8D48A141119D
:1007D0000CC088819981892B09F042C08C819D8150
:1007E0000E94030F1D821C8242C0011117C050E0FD
:1007F0008A819B810E94FA1A28A18A819B81820F9B
:10080000911D9B838A832C813D818217930750F130
:10081000888199819B838A8380E029C050E08E8102
:100820009F810E94FA1A88A190E091958195910983
:100830002E813F81280F391F3F832E8348815981A4
:100840002417350730F42C813D81820F931F9F833D
:100850008E83023049F4112349F0115080E007C023
:1008600080E005C080E003C080E001C080E01F5F41
:100870001E8FDF91CF911F910F910895FC0140A130
:100880004423A9F050E026813781240F351F378398
:100890002683848195812817390720F080819181F2
:1008A00097838683CB01668177810C94FA1A089529
:1008B0001F93CF93DF93EC010FB6F8940F921AA118
:1008C0000BC08B89882351F0CE0143960E94440DC2
:1008D00081110E946A0E115011169CF38FEF8AA3AA
:1008E0000F900FBE0FB6F8940F9219A10BC0888518
:1008F000882351F0CE0108960E94440D81110E9478
:100900006A0E115011169CF38FEF89A30F900FBE42
:10091000DF91CF911F910895CF93DF93EC010FB634
:10092000F8940F92E881F9818F8D28A190E030E052
:10093000829FA001839F500D929F500D11244E0F56
:100940005F1F5D834C831E8EFB83EA830197289F84
:10095000A001299F500D389F500D1124CF01840F05
:10096000951F9F838E838FEF89A38AA361110BC08C
:100970008885882371F0CE0108960E94440D882353
:1009800041F02BDE06C0CE01089659DDCE0143961C
:1009900056DD0F900FBE81E0DF91CF9108950F9348
:1009A0001F93F801611103C01183008302C05183BA
:1009B0004083878F60A361E0CF01AEDF1F910F916D
:1009C0000895DF92EF92FF920F931F93CF93DF93DF
:1009D000F82EE62ED42E869FC001112483964ADC81
:1009E000EC01009741F08C012D2DAC014D5D5F4F66
:1009F0006E2D8F2DD4DFCE01DF91CF911F910F91FE
:100A0000FF90EF90DF900895CF92DF92EF92FF92E8
:100A10000F931F93CF93DF93CDB7DEB729970FB610
:100A2000F894DEBF0FBECDBF7C016B012E833F83E8
:100A30004887598710E00FB6F8940F92F701968D0A
:100A4000878D981710F00230B1F4402FB601C7011E
:100A5000B6DEF7019389992341F0C70143960E94BE
:100A6000440D882321F0B9DD02C08111B6DD0F905D
:100A70000FBE81E048C08E819F81A885B985892BF2
:100A80008A2B8B2B21F40F900FBE80E03CC01111FC
:100A900005C0CE0101960E94F30D11E00F900FBE2C
:100AA0007DD40FB6F8940F92F70181A18F3F09F41E
:100AB00011A2F70182A18F3F09F412A20F900FBE7D
:100AC000BE016A5F7F4FCE0101960E94040E811124
:100AD00016C0C70166DE882371F04E815F8168858C
:100AE0007985C701089677D7C701E2DE97D58111CE
:100AF000A2CF73DDA0CFC701DBDE90D59CCFC701AD
:100B0000D7DE8CD580E029960FB6F894DEBF0FBEF5
:100B1000CDBFDF91CF911F910F91FF90EF90DF90AC
:100B2000CF9008950F93009769F0FC01158214820D
:100B300011821082168200E020E030E0A90160E01E
:100B400070E062DF0F910895CF93DF93482F60E04C
:100B500081E037DFEC01E6DFCE01DF91CF91089530
:100B6000EF92FF920F931F93CF93DF938A01FC01C3
:100B7000568D378D531710F02230F1F4422F780143
:100B8000EC011AA18E8DCE011ADE1F3F79F48B89FC
:100B90008823A1F0CE01439677D7882389F0E1140A
:100BA000F10481F081E0F70180830DC0FF24F3940C
:100BB000F10EFAA281E007C080E005C081E003C029
:100BC00081E001C081E0DF91CF911F910F91FF90F3
:100BD000EF900895CF92DF92EF92FF920F931F93C1
:100BE000CF93DF93CDB7DEB729970FB6F894DEBF6A
:100BF0000FBECDBF8C016B012E833F834887598781
:100C0000E12C0FB6F8940F92F801F68CFF2091F0CA
:100C1000B601C80133DEFA94F801F68E8085882388
:100C200029F0C801089630D78111D7DC0F900FBE8C
:100C300081E04CC08E819F81A885B985892B8A2B44
:100C40008B2B21F40F900FBE80E040C0E11005C057
:100C5000CE010196C8D7EE24E3940F900FBE9ED329
:100C60000FB6F8940F92F80181A18F3F09F411A2F9
:100C7000F80182A18F3F09F412A20F900FBEBE01AE
:100C80006A5F7F4FCE010196BFD7811116C0C801A0
:100C90007BDD882371F04E815F8168857985C8018D
:100CA000439699D6C80104DEB9D48111AACF95DC48
:100CB000A8CFC801FDDDB2D4A4CFC801F9DDAED400
:100CC000C80162DD882309F49CCF80E029960FB625
:100CD000F894DEBF0FBECDBFDF91CF911F910F9172
:100CE000FF90EF90DF90CF900895EF92FF920F93D7
:100CF0001F93CF93DF93CDB7DEB729970FB6F89444
:100D0000DEBF0FBECDBF8C014E835F8368877987BE
:100D1000E12CF12C0FB6F8940F92F801868D882300
:100D2000C1F08150868F80819181892B29F40E94A6
:100D3000C50FF80195838483F8018085882329F005
:100D4000C8010896A1D6811148DC0F900FBE81E042
:100D50006BC08E819F81A885B985892B8A2B8B2BAF
:100D600021F40F900FBE80E05FC0F11005C0CE01EE
:100D7000019639D7FF24F3940F900FBE0FD30FB60F
:100D8000F8940F92F80181A18F3F09F411A2F801A4
:100D900082A18F3F09F412A20F900FBEBE016A5FBD
:100DA0007F4FCE01019630D7811124C0C801ECDC01
:100DB0008823E1F0F80180819181892B49F40FB6F5
:100DC000F8940F928481958197D7E82E0F900FBEEB
:100DD0004E815F8168857985C8014396FCD5C8013D
:100DE00067DD1CD4811196CFF8DB94CFC80160DD9C
:100DF00015D490CFC8015CDD11D4C801C5DC8823AF
:100E000009F488CFEE2079F00FB6F8940F92C8015C
:100E1000ABDC682FF801848195810E945E0F0F90F2
:100E20000FBE80E001C080E029960FB6F894DEBFC7
:100E30000FBECDBFDF91CF911F910F91FF90EF902B
:100E40000895CF93DF93EC010FB6F8940F9289A128
:100E50008F3F09F419A28AA18F3F09F41AA20F90BB
:100E60000FBE8E8D811103C0CE014396CBD5CE012E
:100E70001FDDDF91CF910895E091550CF091560C54
:100E8000808181110CC08FEF9FEFDC0180931F0CDC
:100E90009093200CA093210CB093220C0895E09124
:100EA000550CF091560C0780F085E02D80819181E2
:100EB000A281B38180931F0C9093200CA093210CEE
:100EC000B093220C0895CF93DF93EC018B8D9C8D12
:100ED0007ADACE0178DADF91CF9108954F925F925E
:100EE0006F927F928F929F92AF92BF92CF92DF923A
:100EF000EF92FF920F93CF93DF932C015B014A0196
:100F00003901E60165EA70E08B8D9C8D0E94031B20
:100F10008B8D9C8D21E0821A9108880E991EA11458
:100F2000B10489F415C0822F90E0F501E80FF91F94
:100F30003081DE01A80FB91F5D963C938081882324
:100F400029F02F5F01C020E0203168F31CA601C00A
:100F50001D8E0A3008F009E00A8F0DA71EA6CE01EB
:100F600002967EDACE010E967BDADB87CA878AE0AC
:100F700090E0A0E0B0E0801B9109A109B1098E8743
:100F80009F87A88BB98BDF8BCE8B18AA1FA684E016
:100F9000FE01F196DF011D928A95E9F71DAAA301D2
:100FA000B201C401D1DA99838883E114F10419F004
:100FB000F701D183C083DF91CF910F91FF90EF9024
:100FC000DF90CF90BF90AF909F908F907F906F9069
:100FD0005F904F900895CF93C0E008C02BE0C29F70
:100FE000C00111248359934F2ADACF5FCA30B0F37E
:100FF00082E69CE024DA87E59CE021DA88E49CE044
:101000001EDA8DE39CE01BDA81E39CE018DA82E6CD
:101010009CE09093560C8093550C87E59CE0909350
:10102000540C8093530CCF910895CF93DF93EC0130
:101030000FB6F8940F928091300C8F5F8093300C34
:101040008091DB0C9091DC0C892B51F4D093DC0C5B
:10105000C093DB0C8091300C813091F4BCDF10C068
:1010600080912A0C81110CC0E091DB0CF091DC0C1A
:10107000928D8A8D891720F0D093DC0CC093DB0C05
:101080008091230C8F5F8093230CEA8D80912B0C31
:101090008E1710F4E0932B0C8BE08E9FF00111243F
:1010A000E359F34F0180F281E02DFF83EE83268127
:1010B000378139872887A681B7819E012E5F3F4FF0
:1010C00015963C932E93149737832683EA8D8E9F33
:1010D000F0011124E359F34FFD87EC8780818F5F86
:1010E00080830F900FBE80912A0C882349F0E091F5
:1010F000DB0CF091DC0C928D8A8D981708F46DDA78
:10110000DF91CF910895CF93DF931AC00FB6F89473
:101110000F92E091440CF091450CC085D185CE0131
:101120000296DFD98091300C81508093300C8091F1
:101130003C0C815080933C0C0F900FBECE01C3DE5F
:1011400080913C0C8111E2CFDF91CF9108958F9275
:101150009F92AF92BF92CF92DF92EF92FF92CF9386
:10116000DF936B017C01C42F80902C0C90902D0C90
:10117000A0902E0CB0902F0C8091DB0C9091DC0C89
:101180000296AFD98FEFC816D806E806F806B1F573
:10119000CC23A1F1E1E3FCE0A181B281C091DB0CA1
:1011A000D091DC0CBF83AE83C091DB0CD091DC0C02
:1011B00016968D919C911797998788871696CD9151
:1011C000DC9117978091DB0C9091DC0C02969D834B
:1011D0008C838091DB0C9091DC0C029617969C938B
:1011E0008E931697A091DB0CB091DC0C1D96FC93AE
:1011F000EE931C9780818F5F80833DC0C80CD91C03
:10120000EA1CFB1CE091DB0CF091DC0CC282D38267
:10121000E482F582C814D904EA04FB0460F4609106
:10122000DB0C7091DC0C8091530C9091540C6E5F30
:101230007F4F1AD920C06091DB0C7091DC0C80913B
:10124000550C9091560C6E5F7F4F0ED980911F0CFC
:101250009091200CA091210CB091220CC816D906B7
:10126000EA06FB0640F4C0921F0CD092200CE092DC
:10127000210CF092220CDF91CF91FF90EF90DF9044
:10128000CF90BF90AF909F908F9008952F923F92F4
:101290004F925F926F927F928F929F92AF92BF9286
:1012A000CF92DF92EF92FF920F93CF93DF933C01A7
:1012B0001B014A012901CA010E943A016C01892BD4
:1012C00069F086E390E00E943A01EC01892B19F065
:1012D000DC8ECB8E05C0C60176D802C0C0E0D0E05F
:1012E000209761F0A12CB12C6E019201A401B101F3
:1012F000C301F4DDCE0199DE81E001C08FEFDF9103
:10130000CF910F91FF90EF90DF90CF90BF90AF9073
:101310009F908F907F906F905F904F903F902F9015
:101320000895EF92FF920F930F2EFDE1EF2EFCE058
:10133000FF2EF02D00E020E030E040EC50E06DE1C9
:1013400072E08CE790E0A2DF813009F4BAD68130F8
:10135000F9F4F8948FEF9FEFDC0180931F0C9093CA
:10136000200CA093210CB093220C81E080932A0CD6
:1013700010922C0C10922D0C10922E0C10922F0CFF
:10138000E091DB0CF091DC0C87A50E94B700F3D84C
:10139000809106020F91FF90EF90089580911C0CB0
:1013A0008F5F80931C0C08950FB6F8940F92609194
:1013B0002C0C70912D0C80912E0C90912F0C0F9075
:1013C0000FBE0895CF92DF92EF92FF92CF93DF93FB
:1013D00080911C0C811105C1C0902C0CD0902D0C5B
:1013E000E0902E0CF0902F0C8FEFC81AD80AE80A64
:1013F000F80AC0922C0CD0922D0CE0922E0CF09298
:101400002F0CC114D104E104F104B1F48091550C06
:101410009091560C2091530C3091540C3093560CF3
:101420002093550C9093540C8093530C8091240C72
:101430008F5F8093240C20DD80911F0C9091200CF5
:10144000A091210CB091220CC816D906EA06FB0621
:1014500020F480E0B2C081E001C080E0E091550C52
:10146000F091560C908191110CC04FEF5FEFBA01D3
:1014700040931F0C5093200C6093210C7093220C0E
:101480009CC0E091550CF091560C0780F085E02D42
:101490000084F185E02D4281538164817581C416F9
:1014A000D506E606F70648F440931F0C5093200C2F
:1014B0006093210C7093220C80C0A485B585C681F1
:1014C000D781208531853F832E83C085D1852681B4
:1014D00037813D832C8311964D915C9112979F012A
:1014E0002E5F3F4F4217530731F4408551851296C6
:1014F0005C934E931197158614869C9191509C9302
:10150000A08DB18D109709F1C289D389448955897D
:101510005F834E83C489D589428953895D834C8317
:1015200011966D917C911297AF01425F5F4F6417E6
:10153000750731F44489558912965C934E9311973F
:10154000118E108E9C9191509C93A28D90912B0C9A
:101550009A1710F4A0932B0C9BE09A9FD0011124B2
:10156000A359B34F11960D90BC91A02DB783A683BC
:1015700016964D915C911797518740871696CD919D
:10158000DC9117973D832C8317963C932E931697E7
:10159000A28D9A9FD0011124A359B34FB587A48778
:1015A0009C919F5F9C93228DE091DB0CF091DC0C71
:1015B000928D291708F04FCF51CFE091DB0CF091BD
:1015C000DC0CE28D9BE0E99FF0011124E359F34F1D
:1015D0009081923008F081E09091250C911116C015
:1015E00016C08091260C9091270CA091280CB091E8
:1015F000290C0196A11DB11D8093260C9093270CF8
:10160000A093280CB093290C80E001C081E0DF9109
:10161000CF91FF90EF90DF90CF900895CF92DF921F
:10162000EF92FF92CF93DF930FB6F8940F928091D1
:101630001C0C815080931C0C80911C0C8111BEC02D
:101640008091300C811188C0BCC0E0914F0CF091AA
:10165000500C0084F185E02DA08DB18DC289D38915
:10166000848995899F838E83C489D589828993894A
:101670009D838C8311962D913C911297CF010E96EC
:101680002817390731F48489958912969C938E9393
:101690001197118E108E8C9181508C93A485B585F5
:1016A000C681D781808591859F838E83C085D185B2
:1016B000868197819D838C8311968D919C91129741
:1016C0009F012E5F3F4F8217930731F480859185EC
:1016D00012969C938E931197158614868C91815047
:1016E0008C93A28D80912B0C8A1710F4A0932B0C55
:1016F0008BE08A9FD0011124A359B34F11960D900E
:10170000BC91A02DB783A68316964D915C91179737
:10171000518740871696CD91DC9117973D832C8396
:1017200017963C932E931697A28D8A9FD001112471
:10173000A359B34FB587A4878C918F5F8C93928DFB
:10174000A091DB0CB091DC0C5A968C91981730F07C
:1017500081E08093250C02C0E0E0F0E08091480C2D
:10176000811173CFEF2B09F087DBC090260CD0904E
:10177000270CE090280CF090290CC114D104E1044E
:10178000F104A1F01FDE882319F081E08093250C7D
:1017900081E0C81AD108E108F108A1F71092260CDF
:1017A0001092270C1092280C1092290C8091250C75
:1017B000882331F00E94ED0281E003C080E001C087
:1017C00080E00F900FBEDF91CF91FF90EF90DF9000
:1017D000CF9008958F929F92AF92BF92CF92DF9257
:1017E000EF92FF921F93CF93DF93EC016A017B018D
:1017F000D5DD80902C0C90902D0CA0902E0CB090EC
:101800002F0C88819981AA81BB81AC01BD014C0D4F
:101810005D1D6E1D7F1D88169906AA06BB0660F425
:10182000481759076A077B0798F484169506A60699
:10183000B70680F010E013C0481759076A077B0706
:1018400058F084169506A606B70640F010E007C0CB
:1018500010E005C011E003C011E001C011E04883B1
:1018600059836A837B83112341F0CB01BA01681944
:1018700079098A099B0940E06ADCD0DE811102C047
:101880000E94ED02812FDF91CF911F91FF90EF9089
:10189000DF90CF90BF90AF909F908F900895CF92A0
:1018A000DF92EF92FF926B017C01672B682B692B13
:1018B00039F074DD40E0C701B60149DCAFDE01C09C
:1018C00080E0811102C00E94ED02FF90EF90DF9056
:1018D000CF900895009721F48091DB0C9091DC0C5F
:1018E0000FB6F8940F92FC0170AB67A70F900FBE74
:1018F000089580911C0C882321F081E08093250CB1
:1019000008951092250CE091DB0CF091DC0C87A57A
:101910000E94C100E091DB0CF091DC0C2081318150
:10192000E091DB0CF091DC0C838D948D8217930792
:1019300058F06091DB0C7091DC0C635E7F4F8091FE
:10194000DB0C9091DC0C45D680912B0C01C08150B2
:10195000282F30E09BE0929FF001939FF00D11241F
:10196000E359F34F9081992391F39BE0929FA0015B
:10197000939F500D1124DF010180F281E02D04803E
:10198000F581E02D1296FC93EE9311974059534F39
:10199000E417F50729F444815581FD015283418301
:1019A0009BE0929FF001939FF00D1124E359F34FB8
:1019B0000180F281E02D208531853093DC0C20936D
:1019C000DB0C80932B0CE091DB0CF091DC0C87A5F9
:1019D0000C94B7000895CF92DF92EF92FF926A01C4
:1019E0007B016091DB0C7091DC0C625F7F4F0E9489
:1019F000340241E0C701B601AADBFF90EF90DF900F
:101A0000CF900895CF93DF93FC01CB01BA01A18160
:101A1000B281C091DB0CD091DC0CBB8BAA8BC09146
:101A2000DB0CD091DC0C16964D915C9117975D8B79
:101A30004C8B1696CD91DC9117974091DB0C509111
:101A4000DC0C425F5F4F5D834C834091DB0C509117
:101A5000DC0C425F5F4F17965C934E931697A091F4
:101A6000DB0CB091DC0C5996FC93EE9358973081C7
:101A70003F5F3083222319F06FEF7FEFCB01422FBE
:101A800066DBDF91CF910895CF93DF93DC0117964A
:101A9000ED91FC9118970084F185E02DA08DB18D1A
:101AA000C289D389848995899F838E83C489D58986
:101AB000828993899D838C8311968D919C91129735
:101AC0009F01225F3F4F8217930731F484899589E4
:101AD00012969C938E931197118E108E8C9181503B
:101AE0008C9380911C0C811152C0A485B585C68150
:101AF000D781808591859F838E83C085D18586819E
:101B000097819D838C8311968D919C9112979F0153
:101B10002E5F3F4F8217930731F48085918512968F
:101B20009C938E931197158614868C9181508C937B
:101B3000A28D80912B0C8A1710F4A0932B0C8BE0B4
:101B40008A9FD0011124A359B34F11960D90BC91D7
:101B5000A02DB783A68316964D915C911797518758
:101B600040871696CD91DC9117973D832C8317966D
:101B70003C932E931697A28D8A9FD0011124A359CE
:101B8000B34FB587A4878C918F5F8C931CC048E4BA
:101B90005CE0DA011196CD91DC911297D38BC28B68
:101BA0008E819F81958B848B8E819F81DC01159620
:101BB0003C932E9314973F832E83518F408FDA01ED
:101BC0008C918F5F8C93928DE091DB0CF091DC0C0B
:101BD000828D891720F481E08093250C01C080E07C
:101BE000DF91CF9108952091240CFC012083409136
:101BF0002C0C50912D0C60912E0C70912F0C418368
:101C000052836383748308958F929F92AF92BF92A1
:101C1000CF92DF92EF92FF920F931F93CF93DF93B8
:101C2000FB010FB6F8940F92C0902C0CD0902D0CA5
:101C3000E0902E0CF0902F0CDC0111960D911D916F
:101C40002D913C91149746015701801A910AA20ADE
:101C5000B30A40815181628173814F3FBFEF5B07BF
:101C60006B077B0739F1EC01B881A091240CBA17FE
:101C700059F0C016D106E206F30630F01082118248
:101C80001282138281E017C084169506A606B70655
:101C900058F4481959096A097B09408351836283C2
:101CA0007383A1DF80E007C0108211821282138249
:101CB00081E001C080E00F900FBEDF91CF911F91B6
:101CC0000F91FF90EF90DF90CF90BF90AF909F90DB
:101CD0008F90089581E08093250C089580912A0CBF
:101CE000882331F080911C0C811104C082E008959A
:101CF00081E0089580E008950F931F93CF93DF93C1
:101D0000FC01892B09F477C0828DA091DB0CB09186
:101D1000DC0C5A969C91891708F063C0468557855C
:101D200060897189772394F0A091DB0CB091DC0C71
:101D30005A969C914AE050E060E070E0491B5109DE
:101D40006109710946875787608B718B24853585BA
:101D50004BE0849FC00111248359934F2817390702
:101D6000B9F5EF018F010E5F1F4FC8010E9471028C
:101D7000E091DB0CF091DC0CE28DEA8F80912B0C72
:101D80008E1710F4E0932B0C8BE08E9FF001112442
:101D9000E359F34F0180F281E02DFF83EE8326812A
:101DA000378139872887A681B78115961C930E93B2
:101DB000149717830683EA8D8E9FF0011124E3594F
:101DC000F34FFD87EC8780818F5F808381E016C0B1
:101DD000A091DB0CB091DC0C5A968C91828F81E043
:101DE0000DC095A5E091DB0CF091DC0C828D98176D
:101DF00020F080E003C080E001C081E0DF91CF915E
:101E00001F910F9108950F931F93CF93DF93FC01C0
:101E1000892B09F449C086A5815086A7228D95A5F6
:101E2000291709F443C0811143C0EF018F010E5FF0
:101E30001F4FC8010E947102EDA5EA8F8AE090E071
:101E4000A0E0B0E08E1B9109A109B1098E879F87A0
:101E5000A88BB98B80912B0C8E1710F4E0932B0C70
:101E60008BE08E9FF0011124E359F34F0180F28142
:101E7000E02DFF83EE832681378139872887A6816D
:101E8000B78115961C930E93149717830683EA8DDA
:101E90008E9FF0011124E359F34FFD87EC87808179
:101EA0008F5F808381E005C080E003C080E001C0D7
:101EB00080E0DF91CF911F910F9108950F931F93B1
:101EC000CF93DF93FC01892B09F45AC085A58617AF
:101ED00008F4862F928D891709F452C026A5213067
:101EE00009F04EC0828F46855785608971897723B6
:101EF00064F04AE050E060E070E0481B510961097D
:101F0000710946875787608B718B248535854BE037
:101F1000949FC00111248359934F2817390781F5E5
:101F2000EF018F010E5F1F4FC8010E947102EA8D01
:101F300080912B0C8E1710F4E0932B0C8BE08E9F6E
:101F4000F0011124E359F34F0180F281E02DFF836A
:101F5000EE832681378139872887A681B781159638
:101F60001C930E93149717830683EA8D8E9FF001BE
:101F70001124E359F34FFD87EC8780818F5F8083C5
:101F8000DF91CF911F910F9108958091DB0C90917B
:101F9000DC0C892B39F0E091DB0CF091DC0C86A590
:101FA0008F5F86A78091DB0C9091DC0C0895DC019B
:101FB000E091E70CF091E80C808191E0811190E0D4
:101FC0009C93911108C00780F085E02D608171819C
:101FD00082819381089560E070E0CB010895CF92F3
:101FE000DF92EF92FF920F931F93FC014283538382
:101FF000648375839387828704171507260737073D
:10200000C0F00C191D092E093F0986859785A08906
:10201000B189081719072A073B0700F5BF016E5F52
:102020007F4F8091E50C9091E60C0E94340280E095
:1020300018C00C151D052E053F0528F44C155D052F
:102040006E057F0568F4BF016E5F7F4F8091E70CDE
:102050009091E80C0E94340280E003C081E001C04E
:1020600081E01F910F91FF90EF90DF90CF90089546
:102070000FB6F8940F928091E30C9091E40C892BA9
:10208000E9F484EF9CE00E941F0289EE9CE00E942C
:102090001F0284EF9CE09093E80C8093E70C89EE9C
:1020A0009CE09093E60C8093E50C40E067E08AE0CA
:1020B0000E94E1049093E40C8093E30C0F900FBE18
:1020C0000895EF92FF920F93D3DF8091E30C9091EC
:1020D000E40C892B89F00F2EF1EEEF2EFCE0FF2EA1
:1020E000F02D03E020E030E040EC50E062E272E0EE
:1020F00086E890E0CBD801C080E00F91FF90EF9090
:1021000008958F929F92AF92BF92CF92DF92EF92FB
:10211000FF920F931F93CF93DF93CDB7DEB727972F
:102120000FB6F894DEBF0FBECDBFE091E30CF09187
:10213000E40C309781F169832A833B834C835D8370
:102140009F838E836630F4F4C9DD823069F400E049
:10215000A7019601BE016F5F7F4F8091E30C9091C4
:10216000E40C0E94040518C000E020E030E0A90162
:10217000BE016F5F7F4F8091E30C9091E40C0E9451
:1021800004050AC020E0A801BE016F5F7F4FCF01A8
:102190000E94B00501C080E027960FB6F894DEBF1C
:1021A0000FBECDBFDF91CF911F910F91FF90EF90A8
:1021B000DF90CF90BF90AF909F908F9008958F92B7
:1021C0009F92AF92BF92CF92DF92EF92FF920F93C6
:1021D0001F93CF93DF933BC00780F085E02D808075
:1021E0009180A280B380C085D1858E010E5F1F4F84
:1021F000C8010E947102EC89FD89CE0119958E8972
:1022000082FF25C08E859F85A889B989880D991D73
:10221000AA1DBB1D88169906AA06BB0670F48A8300
:102220009B83AC83BD83DB87CA87B8018091E70CB1
:102230009091E80C0E9434020AC0C12CD12C760186
:1022400000E010E0A501940160E0CE015ADFE091CA
:10225000E70CF091E80C80818111BECF8091E50CF4
:102260009091E60C9093E80C8093E70CF093E60CC9
:10227000E093E50CDF91CF911F910F91FF90EF90CC
:10228000DF90CF90BF90AF909F908F900895CF92A6
:10229000DF92EF92FF92CF93DF93EC0185D86B0131
:1022A0007C018091DD0C9091DE0CA091DF0CB0914F
:1022B000E00CC816D906EA06FB0620F480DF81E0B0
:1022C000888301C01882C092DD0CD092DE0CE092AF
:1022D000DF0CF092E00CC701B601DF91CF91FF90C7
:1022E000EF90DF90CF9008954F925F926F927F9220
:1022F0008F929F92AF92BF92CF92DF92EF92FF9216
:102300000F931F93CF93DF934B015C0129013A0197
:10231000E091E70CF091E80C0780F085E02DC08596
:10232000D185CE0102960E9471028E8982FF1BC068
:102330004E855F8568897989480D591D6A1D7B1D09
:102340007501640193018201CE0149DE882369F0A1
:10235000C12CD12C760100E010E0A501940160E0D1
:10236000CE01CFDE02C08E7F8E8BEC89FD89CE013F
:102370001995DF91CF911F910F91FF90EF90DF9012
:10238000CF90BF90AF909F908F907F906F905F9015
:102390004F9008958F929F92AF92BF92CF92DF920B
:1023A000EF92FF921F93CF93DF931F92CDB7DEB7CB
:1023B0006B017C01142F0E94CE09CE01019667DFCC
:1023C0004B015C01898181112BC011110CC08C144F
:1023D0009D04AE04BF0438F021D9A5019401C701C2
:1023E000B60182DF1EC0112341F0E091E50CF091AF
:1023F000E60C808111E0811110E0B701A6014819B7
:1024000059096A097B09212F8091E30C9091E40C12
:102410000E94210703D9811104C00E94ED0201C06E
:10242000FDD80F90DF91CF911F91FF90EF90DF903B
:10243000CF90BF90AF909F908F900895AF92BF9232
:10244000CF92DF92EF92FF920F931F93CF93DF9380
:10245000CDB7DEB728970FB6F894DEBF0FBECDBF5D
:1024600081C0898188230CF47DC0AE80BF80D501F6
:102470001C968D919C911D97892B21F0C501029688
:102480000E947102CE01089602DF8B019C01E98156
:102490000E2E000CFF0BEA30F10508F063C0882710
:1024A000EE58FF4F8F4F79C7F50186898160868B83
:1024B000CA80DB80EC80FD80468557856089718904
:1024C0004C0D5D1D6E1D7F1DC50189DD882309F43E
:1024D00049C0D5015496ED91FC915597C5011995C8
:1024E000F501868982FF3EC04A815B816C817D81D6
:1024F00086859785A089B1899A01AB01280F391F7C
:102500004A1F5B1FC12CD12C760100E010E060E077
:10251000C501F7DD27C0D50156968C9156978E7F61
:1025200056968C931FC0F50186898160868B4A81FF
:102530005B816C817D8146875787608B718B400FF3
:10254000511F621F731F68017901C50148DD0AC070
:10255000F501868981FD04C0C5010E94E30102C026
:102560008E7F868B20E030E0A901BE016F5F7F4F38
:102570008091E30C9091E40C0E94EA05811171CFE7
:1025800028960FB6F894DEBF0FBECDBFDF91CF9176
:102590001F910F91FF90EF90DF90CF90BF90AF9081
:1025A0000895089584B1806884B985B1806885B93B
:1025B000089583B1806883B90895F4DF2FEF80E731
:1025C00092E0215080409040E1F700C00000F1DF30
:1025D000F5CFE8DF2FEF87EA91E621508040904069
:1025E000E1F700C00000E5DFF5CFCF93DF931F9246
:1025F0001F92CDB7DEB761E070E080E090E06AD96D
:1026000066E070E080E090E04AD980B18823C1F3B1
:102610008A838091FF0C8F5F8093FF0C898300E099
:102620002FEF3FEFA901BE016F5F7F4F80910E0D2D
:1026300090910F0D0E94040566E070E080E090E04C
:102640002ED9DECFCF93DF931F921F92CDB7DEB787
:1026500062E070E080E090E03DD92FEF3FEFA9010C
:10266000BE016F5F7F4F80910A0D90910B0D0E940C
:10267000EA05882391F38A8188B96CE070E080E0F4
:1026800090E00DD918B8E9CFCF93DF9300D000D0F8
:10269000CDB7DEB763E070E080E090E01BD90E9428
:1026A000D40969837A838B839C834DE150E060E099
:1026B00070E0CE0101968ED819C080911A0D9091CC
:1026C0001B0DA8D78E838091FF0C8F5F8093FF0C2A
:1026D0008D8300E02FEF3FEFA901BE016B5F7F4FBD
:1026E00080910A0D90910B0D0E940405EAD0811192
:1026F000E4CFDBCFCF93DF931F921F92CDB7DEB72E
:1027000064E070E080E090E0E5D82FEF3FEFA901B2
:10271000BE016F5F7F4F80910E0D90910F0D0E9453
:10272000EA05882391F34FEF5FEFBA018091100D16
:102730009091110D0E947506882339F38A8190E0EB
:10274000A7D700E020E030E0A90160E070E08091D0
:10275000100D9091110D0E940405D7CFEF92FF92BA
:102760000F9380E085D011B885E3809307018FEF48
:1027700087B918B88091100D9091110D892B89F4AB
:1027800081E00E94A4059093110D8093100D009795
:1027900041F000E020E030E0A90160E070E00E943C
:1027A0000405E12CF12C01E020E030E040EC50E0A9
:1027B0006AE272E085EF92E10E94460920E030E093
:1027C00040EC50E062E372E082E293E10E9446094D
:1027D00002E020E030E040EC50E067E372E084E4A7
:1027E00093E10E94460901E020E030E040EC50E037
:1027F00061E472E08AE793E10E94460940E062E00A
:102800008AE00E94E10490930B0D80930A0D40E052
:1028100062E08AE00E94E10490930F0D80930E0D18
:102820000F91FF90EF90089599DF0E94910980E049
:1028300090E00895CF93DF931F92CDB7DEB7BE012E
:102840006F5F7F4F8091000D9091010D16D1811126
:10285000F6CF898190E00F90DF91CF910895682F96
:102860008091000D9091010DDDD080E090E0089501
:102870008F929F92AF92CF92EF920F93812C912CD7
:102880006894AA24A7F86894CC24C7F8E12C00E047
:1028900023E040E051EE60E070E028D09093010D1D
:1028A0008093000DEAE1FDE087E092E09183808370
:1028B000938382830F91EF90CF90AF909F908F90F2
:1028C0000895CF93DF931F92CDB7DEB71982BE0173
:1028D0006F5F7F4F8091000D9091010DEED0998137
:1028E00081E089270F90DF91CF9108952F923F9239
:1028F0004F925F926F927F928F929F92AF92CF9200
:10290000EF92FF920F931F93CF93DF93CDB7DEB774
:10291000F82E2A013B0188E090E047D58C018F2DED
:1029200090E0FC01EE0FFF1FEE5FF24F118300837A
:102930000115110509F464C0880F991FFC01EB5EB5
:10294000FD4F80819181D8018D939C938C2D90E0D7
:10295000880F991F880F991F28D51C0186E090E0E9
:1029600024D57C014C2DB10112D3F801F582E4820B
:102970008A2D90E0880F991F880F991F16D51C018A
:1029800086E090E012D57C014A2DB10100D3D80138
:102990001396FC92EE92129717969C928E9216972F
:1029A000FFB6F894ED91FC91119736978081826083
:1029B00080838D909C90C301B201FED320E030E073
:1029C00040E051E487D49B01AC0160E074E284E70D
:1029D0009BE45ED320E030E040E85FE3F4D2C0D374
:1029E000F40132976083D801ED91FC9111973597EE
:1029F00088E98083ED91FC91349786E08083FFBE67
:102A0000C801DF91CF911F910F91FF90EF90CF9070
:102A1000AF909F908F907F906F905F904F903F907E
:102A20002F900895CF93DF93DC01892B01F112964B
:102A3000ED91FC911397938182812581981B9223BC
:102A400084819817B1F0838126952823C081D18194
:102A5000C20FD11D68838F5F958189238383ED9198
:102A6000FC91359780818062808380E003C081E0A3
:102A700001C082E0DF91CF9108950097D1F0DC0191
:102A80001496ED91FC91159793818281981799F096
:102A90009281858186958923A081B181A80FB11D7E
:102AA0008C91DB018C939F5F85819823928380E0DA
:102AB000089581E0089583E00895009771F0DC01A6
:102AC0001496ED91FC9115972381928181E0291351
:102AD00080E0FB01808380E0089581E008951F92EB
:102AE0000F920FB60F9211240BB60F922F933F93B4
:102AF0004F935F936F937F938F939F93AF93BF9306
:102B0000CF93DF93EF93FF93A091020DB091030D4C
:102B1000109711F16091C6001496ED91FC911597F4
:102B2000938182812581981B92238481981761F07B
:102B3000838126952823C081D181C20FD11D68834E
:102B40008F5F9581892383831696ED91FC9117976A
:102B5000309711F0CD011995FF91EF91DF91CF9151
:102B6000BF91AF919F918F917F916F915F914F91A5
:102B70003F912F910F900BBE0F900FBE0F901F90A3
:102B800018951F920F920FB60F9211240BB60F9249
:102B90002F938F939F93AF93BF93EF93FF93E09106
:102BA000020DF091030D3097B9F00280F381E02D12
:102BB000938182819817B1F092818581282F269583
:102BC0002923A081B181A20FB11D2C919F5F892380
:102BD00082832093C6000BC0E1ECF0E080818F7D02
:102BE000808305C0E1ECF0E080818F7D8083FF91E0
:102BF000EF91BF91AF919F918F912F910F900BBE4D
:102C00000F900FBE0F901F9018951F920F920FB646
:102C10000F9211240BB60F922F933F934F935F9314
:102C20006F937F938F939F93AF93BF93CF93DF93D4
:102C3000EF93FF93A091040DB091050D109711F142
:102C40006091CE001496ED91FC911597938182814D
:102C50002581981B92238481981761F083812695A2
:102C60002823C081D181C20FD11D68838F5F9581D8
:102C7000892383831696ED91FC911797309711F075
:102C8000CD011995FF91EF91DF91CF91BF91AF9158
:102C90009F918F917F916F915F914F913F912F9174
:102CA0000F900BBE0F900FBE0F901F9018951F92A4
:102CB0000F920FB60F9211240BB60F922F938F9392
:102CC0009F93AF93BF93EF93FF93E091040DF09127
:102CD000050D3097B9F00280F381E02D9381828158
:102CE0009817B1F092818581282F26952923A081FC
:102CF000B181A20FB11D2C919F5F89238283209304
:102D0000CE000BC0E9ECF0E080818F7D808305C0B0
:102D1000E9ECF0E080818F7D8083FF91EF91BF919E
:102D2000AF919F918F912F910F900BBE0F900FBE7F
:102D30000F901F9018951F920F920FB60F921124AB
:102D40000BB60F922F933F934F935F936F937F93A5
:102D50008F939F93AF93BF93CF93DF93EF93FF93A3
:102D6000A091060DB091070D109711F16091D6005A
:102D70001496ED91FC911597938182812581981B82
:102D800092238481981761F0838126952823C0813E
:102D9000D181C20FD11D68838F5F95818923838381
:102DA0001696ED91FC911797309711F0CD0119957A
:102DB000FF91EF91DF91CF91BF91AF919F918F9153
:102DC0007F916F915F914F913F912F910F900BBE2B
:102DD0000F900FBE0F901F9018951F920F920FB675
:102DE0000F9211240BB60F922F938F939F93AF9353
:102DF000BF93EF93FF93E091060DF091070D30978D
:102E0000B9F00280F381E02D938182819817B1F0AF
:102E100092818581282F26952923A081B181A20F37
:102E2000B11D2C919F5F892382832093D6000BC014
:102E3000E1EDF0E080818F7D808305C0E1EDF0E081
:102E400080818F7D8083FF91EF91BF91AF919F91A2
:102E50008F912F910F900BBE0F900FBE0F901F9070
:102E600018951F920F920FB60F9211240BB60F9266
:102E70002F933F934F935F936F937F938F939F9382
:102E8000AF93BF93CF93DF93EF93FF93A091080D80
:102E9000B091090D109711F1609136011496ED91E2
:102EA000FC911597938182812581981B92238481BF
:102EB000981761F0838126952823C081D181C20FA4
:102EC000D11D68838F5F9581892383831696ED9149
:102ED000FC911797309711F0CD011995FF91EF9163
:102EE000DF91CF91BF91AF919F918F917F916F9122
:102EF0005F914F913F912F910F900BBE0F900FBE9E
:102F00000F901F9018951F920F920FB60F921124D9
:102F10000BB60F922F938F939F93AF93BF93EF9323
:102F2000FF93E091080DF091090D3097B9F0028000
:102F3000F381E02D938182819817B1F09281858190
:102F4000282F26952923A081B181A20FB11D2C9194
:102F50009F5F89238283209336010BC0E1E3F1E078
:102F600080818F7D808305C0E1E3F1E080818F7DEA
:102F70008083FF91EF91BF91AF919F918F912F919E
:102F80000F900BBE0F900FBE0F901F901895FC0175
:102F9000411101C02BD3842F90E09C0121503109B5
:102FA00082239323892B09F021D3413808F01ED3C3
:102FB000128213824483440F41504583718360839E
:102FC00080E090E008955058BB27AA270ED048C152
:102FD00039D130F03ED120F031F49F3F11F41EF48E
:102FE0002EC10EF4E095E7FB24C1E92F4AD180F30E
:102FF000BA17620773078407950718F071F49EF5F6
:1030000062C10EF4E0950B2EBA2FA02D0B01B90171
:1030100090010C01CA01A0011124FF27591B99F04E
:10302000593F50F4503E68F11A16F040A22F232F5A
:10303000342F4427585FF3CF469537952795A795AA
:10304000F0405395C9F77EF41F16BA0B620B730B51
:10305000840BBAF09150A1F0FF0FBB1F661F771FC2
:10306000881FC2F70EC0BA0F621F731F841F48F477
:10307000879577956795B795F7959E3F08F0B3CFFD
:103080009395880F08F09927EE0F979587950895E7
:103090000CD0E6C0DED040F0D5D030F021F45F3F58
:1030A00019F0C7C0511110C1CAC0EBD098F39923D1
:1030B000C9F35523B1F3951B550BBB27AA276217FC
:1030C0007307840738F09F5F5F4F220F331F441F41
:1030D000AA1FA9F333D00E2E3AF0E0E830D0915079
:1030E0005040E695001CCAF729D0FE2F27D0660F66
:1030F000771F881FBB1F261737074807AB07B0E8A5
:1031000009F0BB0B802DBF01FF2793585F4F2AF0BA
:103110009E3F510568F08DC0D7C05F3FECF3983EED
:10312000DCF3869577956795B795F7959F5FC9F717
:10313000880F911D9695879597F90895E1E0660FA0
:10314000771F881FBB1F621773078407BA0720F019
:10315000621B730B840BBA0BEE1F88F7E095089582
:1031600098D088F09F5790F0B92F9927B751A0F0C9
:10317000D1F0660F771F881F991F1AF0BA95C9F70B
:1031800012C0B13081F09FD0B1E008959CC0672F8C
:10319000782F8827B85F39F0B93FCCF386957795BB
:1031A0006795B395D9F73EF49095809570956195A4
:1031B0007F4F8F4F9F4F0895E89409C097FB3EF4CF
:1031C00090958095709561957F4F8F4F9F4F992374
:1031D000A9F0F92F96E9BB279395F69587957795F2
:1031E0006795B795F111F8CFFAF4BB0F11F460FFB2
:1031F0001BC06F5F7F4F8F4F9F4F16C0882311F00A
:1032000096E911C0772321F09EE8872F762F05C01D
:10321000662371F096E8862F70E060E02AF09A95B8
:10322000660F771F881FDAF7880F9695879597F9AD
:10323000089597F99F6780E870E060E008959FEF38
:1032400080EC089500240A9416161706180609063D
:10325000089500240A94121613061406050608950C
:10326000092E0394000C11F4882352F0BB0F40F494
:10327000BF2B11F460FF04C06F5F7F4F8F4F9F4FD4
:10328000089557FD9058440F551F59F05F3F71F056
:103290004795880F97FB991F61F09F3F79F08795BD
:1032A0000895121613061406551FF2CF4695F1DF46
:1032B00008C0161617061806991FF1CF86957105D6
:1032C000610508940895E894BB2766277727CB010A
:1032D00097F908950BD0C4CFB5DF28F0BADF18F006
:1032E000952309F0A6CFABCF1124EECFCADFA0F310
:1032F000959FD1F3950F50E0551F629FF001729F8B
:10330000BB27F00DB11D639FAA27F00DB11DAA1FA9
:10331000649F6627B00DA11D661F829F2227B00DF6
:10332000A11D621F739FB00DA11D621F839FA00D81
:10333000611D221F749F3327A00D611D231F849FD1
:10334000600D211D822F762F6A2F11249F57504028
:103350008AF0E1F088234AF0EE0FFF1FBB1F661FC3
:10336000771F881F91505040A9F79E3F510570F07C
:1033700060CFAACF5F3FECF3983EDCF3869577955C
:103380006795B795F795E7959F5FC1F7FE2B880F77
:10339000911D9695879597F90895EE0FFF1F881F49
:1033A0008BBF0790F691E02D19940F931F93CF9345
:1033B000DF938230910510F482E090E0E091180DE7
:1033C000F091190D20E030E0A0E0B0E0309719F165
:1033D000408151810281138148175907C8F0841731
:1033E000950769F4109731F012960C931297139683
:1033F0001C9327C00093180D1093190D22C021159E
:10340000310519F04217530718F49A01BD01EF0175
:10341000DF01F801DBCF21153105F9F0281B390B4D
:103420002430310580F48A819B816115710521F07A
:10343000FB019383828304C09093190D8093180D30
:10344000FE01329644C0FE01E20FF31F8193919377
:1034500022503109398328833AC02091160D3091CA
:10346000170D232B41F42091020230910302309377
:10347000170D2093160D20910002309101022115A5
:10348000310541F42DB73EB7409104025091050239
:10349000241B350BE091160DF091170DE217F30781
:1034A000A0F42E1B3F0B2817390778F0AC014E5FB4
:1034B0005F4F2417350748F04E0F5F1F5093170DCD
:1034C0004093160D8193919302C0E0E0F0E0CF01AC
:1034D000DF91CF911F910F910895CF93DF930097C4
:1034E00009F481C0FC01329713821282A091180D59
:1034F000B091190D109781F420813181820F931FB3
:103500002091160D3091170D2817390751F5F093BA
:10351000170DE093160D67C0ED0120E030E0CE17E7
:10352000DF0740F44A815B819E0141155105F1F0AE
:10353000EA01F5CFD383C28340815181840F951F67
:10354000C817D90759F488819981840F951F02966D
:10355000918380838A819B819383828321153105A6
:1035600029F4F093190DE093180D3DC0E901FB8398
:10357000EA8349915991C40FD51FEC17FD0761F4F7
:1035800080819181840F951F0296E9019983888338
:10359000828193819B838A83E0E0F0E012968D9193
:1035A0009C911397009719F0FD01DC01F7CF8D91E5
:1035B0009C9111979D012E5F3F4F820F931F209189
:1035C000160D3091170D2817390769F4309729F433
:1035D0001092190D1092180D02C013821282B0932E
:1035E000170DA093160DDF91CF91089581E090E023
:1035F000F8948FC0FB01DC0102C001900D92415094
:103600005040D8F70895DC0101C06D9341505040FF
:10361000E0F70895CF93DF93EC012B8120FF33C0B7
:1036200026FF0AC02F7B2B838E819F8101969F836B
:103630008E838A8190E029C022FF0FC0E881F98142
:103640008081082E000C990B009719F420622B83BF
:103650001AC03196F983E8830EC0EA85FB85199577
:1036600097FF09C02B81019611F080E201C080E133
:10367000822B8B8308C02E813F812F5F3F4F3F837A
:103680002E83992702C08FEF9FEFDF91CF9108958E
:1036900060911C0D70911D0D00C00F931F93CF936F
:1036A000DF93FB01238121FD03C08FEF9FEF2CC02F
:1036B00022FF16C046815781248135814217530766
:1036C00044F4A081B1819D012F5F3F4F318320835E
:1036D0008C93268137812F5F3F4F3783268314C019
:1036E0008B01EC01FB010084F185E02D1995892BFC
:1036F000E1F6D80116968D919C9117970196179631
:103700009C938E931697CE01DF91CF911F910F91CD
:063710000895F894FFCFBC
:103716000000200D20000900000003000000002F1B
:10372600141A140000C600CE00D600360149444CD7
:103736004500546D72205376630072656365697641
:10374600650073656E640075736572496E70757495
:08375600007072696E7400003E
:00000001FF
